{
  "contractName": "Insurance",
  "abi": [
    {
      "inputs": [
        {
          "internalType": "address",
          "name": "",
          "type": "address"
        },
        {
          "internalType": "uint256",
          "name": "",
          "type": "uint256"
        }
      ],
      "name": "policies",
      "outputs": [
        {
          "internalType": "string",
          "name": "name",
          "type": "string"
        },
        {
          "internalType": "string",
          "name": "typeOfCrop",
          "type": "string"
        },
        {
          "internalType": "uint256",
          "name": "timePeriod",
          "type": "uint256"
        },
        {
          "internalType": "uint256",
          "name": "nextPremiumTime",
          "type": "uint256"
        },
        {
          "internalType": "uint256",
          "name": "coverageAmount",
          "type": "uint256"
        },
        {
          "internalType": "uint256",
          "name": "premiumAmount",
          "type": "uint256"
        },
        {
          "internalType": "uint256",
          "name": "noOfPremiumLeft",
          "type": "uint256"
        },
        {
          "internalType": "string",
          "name": "phoneNo",
          "type": "string"
        },
        {
          "internalType": "bool",
          "name": "isClaimed",
          "type": "bool"
        },
        {
          "internalType": "bool",
          "name": "isVerified",
          "type": "bool"
        },
        {
          "internalType": "address",
          "name": "verificationDoneBy",
          "type": "address"
        },
        {
          "internalType": "string",
          "name": "position",
          "type": "string"
        }
      ],
      "stateMutability": "view",
      "type": "function",
      "constant": true
    },
    {
      "inputs": [
        {
          "internalType": "string",
          "name": "_name",
          "type": "string"
        },
        {
          "internalType": "string",
          "name": "_typeOfCrop",
          "type": "string"
        },
        {
          "internalType": "uint256",
          "name": "_timePeriod",
          "type": "uint256"
        },
        {
          "internalType": "string",
          "name": "_phoneNo",
          "type": "string"
        },
        {
          "internalType": "string",
          "name": "position",
          "type": "string"
        }
      ],
      "name": "addPolicy",
      "outputs": [],
      "stateMutability": "nonpayable",
      "type": "function"
    },
    {
      "inputs": [],
      "name": "getCoverageAmount",
      "outputs": [
        {
          "internalType": "uint256",
          "name": "",
          "type": "uint256"
        }
      ],
      "stateMutability": "pure",
      "type": "function",
      "constant": true
    },
    {
      "inputs": [],
      "name": "getPremiumAmount",
      "outputs": [
        {
          "internalType": "uint256",
          "name": "",
          "type": "uint256"
        }
      ],
      "stateMutability": "pure",
      "type": "function",
      "constant": true
    },
    {
      "inputs": [
        {
          "internalType": "uint256",
          "name": "policyId",
          "type": "uint256"
        }
      ],
      "name": "payPremium",
      "outputs": [],
      "stateMutability": "payable",
      "type": "function",
      "payable": true
    },
    {
      "inputs": [
        {
          "internalType": "address",
          "name": "verifier",
          "type": "address"
        },
        {
          "internalType": "address",
          "name": "policyHolder",
          "type": "address"
        },
        {
          "internalType": "uint256",
          "name": "policyId",
          "type": "uint256"
        }
      ],
      "name": "verifyPolicy",
      "outputs": [
        {
          "internalType": "bool",
          "name": "",
          "type": "bool"
        }
      ],
      "stateMutability": "nonpayable",
      "type": "function"
    },
    {
      "inputs": [
        {
          "internalType": "address",
          "name": "policyHolder",
          "type": "address"
        }
      ],
      "name": "getPolicyDetails",
      "outputs": [
        {
          "components": [
            {
              "internalType": "string",
              "name": "name",
              "type": "string"
            },
            {
              "internalType": "string",
              "name": "typeOfCrop",
              "type": "string"
            },
            {
              "internalType": "uint256",
              "name": "timePeriod",
              "type": "uint256"
            },
            {
              "internalType": "uint256",
              "name": "nextPremiumTime",
              "type": "uint256"
            },
            {
              "internalType": "uint256",
              "name": "coverageAmount",
              "type": "uint256"
            },
            {
              "internalType": "uint256",
              "name": "premiumAmount",
              "type": "uint256"
            },
            {
              "internalType": "uint256",
              "name": "noOfPremiumLeft",
              "type": "uint256"
            },
            {
              "internalType": "string",
              "name": "phoneNo",
              "type": "string"
            },
            {
              "internalType": "bool",
              "name": "isClaimed",
              "type": "bool"
            },
            {
              "internalType": "bool",
              "name": "isVerified",
              "type": "bool"
            },
            {
              "internalType": "address",
              "name": "verificationDoneBy",
              "type": "address"
            },
            {
              "internalType": "string",
              "name": "position",
              "type": "string"
            }
          ],
          "internalType": "struct Insurance.Policy[]",
          "name": "",
          "type": "tuple[]"
        }
      ],
      "stateMutability": "view",
      "type": "function",
      "constant": true
    },
    {
      "inputs": [
        {
          "internalType": "address payable",
          "name": "policyHolder",
          "type": "address"
        },
        {
          "internalType": "uint256",
          "name": "policyId",
          "type": "uint256"
        }
      ],
      "name": "claimPolicy",
      "outputs": [
        {
          "internalType": "bool",
          "name": "",
          "type": "bool"
        }
      ],
      "stateMutability": "nonpayable",
      "type": "function"
    }
  ],
  "bytecode": "0x608060405234801561001057600080fd5b5061161a806100206000396000f3fe60806040526004361061007b5760003560e01c80635ad4c5bc1161004e5780635ad4c5bc14610105578063880a5c3a14610135578063903bdbfc1461014957806390b4f12b1461016957600080fd5b80631085ec081461008057806335e8d45a146100a25780634364b26e146100c557806345f23e29146100d8575b600080fd5b34801561008c57600080fd5b506100a061009b3660046110a9565b6101a1565b005b3480156100ae57600080fd5b5060055b6040519081526020015b60405180910390f35b6100a06100d3366004611160565b610317565b3480156100e457600080fd5b506100f86100f3366004611191565b61070f565b6040516100bc91906111f4565b34801561011157600080fd5b5061012561012036600461131e565b610a33565b60405190151581526020016100bc565b34801561014157600080fd5b5060016100b2565b34801561015557600080fd5b5061012561016436600461134a565b610bd8565b34801561017557600080fd5b5061018961018436600461131e565b610d3f565b6040516100bc9c9b9a9998979695949392919061138b565b600060405180610180016040528087815260200186815260200185815260200142600a6101ce9190611444565b81526020016005815260200160018152600c60208083019190915260408083018790526000606084018190526080840181905260a0840181905260c090930186905233835282825282208054600181018255908352912082519293508392600a9092020190819061023f90826114e0565b506020820151600182019061025490826114e0565b5060408201516002820155606082015160038201556080820151600482015560a0820151600582015560c0820151600682015560e0820151600782019061029b90826114e0565b506101008281015160088301805461012086015161014087015161ffff1990921693151561ff001916939093179215159093029190911762010000600160b01b031916620100006001600160a01b0390931692909202919091179055610160820151600982019061030c90826114e0565b505050505050505050565b33600090815260208190526040902054811061036e5760405162461bcd60e51b8152602060048201526011602482015270125b9d985b1a59081c1bdb1a58de481251607a1b60448201526064015b60405180910390fd5b33600090815260208190526040812080548390811061038f5761038f6115a0565b90600052602060002090600a02016005015490506000806000336001600160a01b03166001600160a01b0316815260200190815260200160002083815481106103da576103da6115a0565b90600052602060002090600a02016006015490506000806000336001600160a01b03166001600160a01b031681526020019081526020016000208481548110610425576104256115a0565b600091825260208083206008600a9093020191909101543383529082905260408220805460ff90921693509086908110610461576104616115a0565b90600052602060002090600a02016003015490506000806000336001600160a01b03166001600160a01b0316815260200190815260200160002086815481106104ac576104ac6115a0565b90600052602060002090600a020160080160019054906101000a900460ff1690508061051a5760405162461bcd60e51b815260206004820152601e60248201527f596f757220706f6c696379207374696c6c206e6f7420766572696669656400006044820152606401610365565b428211156105795760405162461bcd60e51b815260206004820152602660248201527f596f7572206e657874207072656d69756d206973206e6f7420616374697661746044820152651959081e595d60d21b6064820152608401610365565b61058b85670de0b6b3a7640000610ff3565b34146105d95760405162461bcd60e51b815260206004820152601b60248201527f496e73756666696369656e74207072656d69756d20616d6f756e7400000000006044820152606401610365565b600084116106295760405162461bcd60e51b815260206004820152601a60248201527f596f75207061696420616c6c20796f7572207072656d69756d730000000000006044820152606401610365565b82156106815760405162461bcd60e51b815260206004820152602160248201527f596f7520616c726561647920636c61696d656420796f7572207072656d69756d6044820152607360f81b6064820152608401610365565b3360009081526020819052604090208054879081106106a2576106a26115a0565b6000918252602082206006600a90920201018054916106c0836115b6565b909155506106d1905042600a611444565b3360009081526020819052604090208054889081106106f2576106f26115a0565b90600052602060002090600a020160030181905550505050505050565b6001600160a01b038116600090815260208181526040808320805482518185028101850190935280835260609492939192909184015b82821015610a2857838290600052602060002090600a02016040518061018001604052908160008201805461077990611457565b80601f01602080910402602001604051908101604052809291908181526020018280546107a590611457565b80156107f25780601f106107c7576101008083540402835291602001916107f2565b820191906000526020600020905b8154815290600101906020018083116107d557829003601f168201915b5050505050815260200160018201805461080b90611457565b80601f016020809104026020016040519081016040528092919081815260200182805461083790611457565b80156108845780601f1061085957610100808354040283529160200191610884565b820191906000526020600020905b81548152906001019060200180831161086757829003601f168201915b5050505050815260200160028201548152602001600382015481526020016004820154815260200160058201548152602001600682015481526020016007820180546108cf90611457565b80601f01602080910402602001604051908101604052809291908181526020018280546108fb90611457565b80156109485780601f1061091d57610100808354040283529160200191610948565b820191906000526020600020905b81548152906001019060200180831161092b57829003601f168201915b5050509183525050600882015460ff80821615156020840152610100820416151560408301526201000090046001600160a01b0316606082015260098201805460809092019161099790611457565b80601f01602080910402602001604051908101604052809291908181526020018280546109c390611457565b8015610a105780601f106109e557610100808354040283529160200191610a10565b820191906000526020600020905b8154815290600101906020018083116109f357829003601f168201915b50505050508152505081526020019060010190610745565b505050509050919050565b60006001600160a01b0383163314610a7e5760405162461bcd60e51b815260206004820152600e60248201526d2bb937b733903b32b934b334b2b960911b6044820152606401610365565b6001600160a01b0383166000908152602081905260409020548210610ae05760405162461bcd60e51b815260206004820152601860248201527724b73b30b634b2103837b634b1bc9024a217a437b63232b960411b6044820152606401610365565b6001600160a01b038316600090815260208190526040902080546001919084908110610b0e57610b0e6115a0565b90600052602060002090600a020160080160006101000a81548160ff021916908315150217905550826001600160a01b03166108fc610ba4670de0b6b3a7640000600080886001600160a01b03166001600160a01b031681526020019081526020016000208681548110610b8457610b846115a0565b90600052602060002090600a020160040154610ff390919063ffffffff16565b6040518115909202916000818181858888f19350505050158015610bcc573d6000803e3d6000fd5b50600190505b92915050565b60006001600160a01b0384163314610c235760405162461bcd60e51b815260206004820152600e60248201526d2bb937b733903b32b934b334b2b960911b6044820152606401610365565b6001600160a01b0383166000908152602081905260409020548210610c855760405162461bcd60e51b815260206004820152601860248201527724b73b30b634b2103837b634b1bc9024a217a437b63232b960411b6044820152606401610365565b6001600160a01b0383166000908152602081905260409020805485919084908110610cb257610cb26115a0565b60009182526020808320600a92909202909101600801805462010000600160b01b031916620100006001600160a01b03958616021790559185168152908190526040902080546001919084908110610d0c57610d0c6115a0565b90600052602060002090600a020160080160016101000a81548160ff021916908315150217905550600190509392505050565b60006020528160005260406000208181548110610d5b57600080fd5b90600052602060002090600a020160009150915050806000018054610d7f90611457565b80601f0160208091040260200160405190810160405280929190818152602001828054610dab90611457565b8015610df85780601f10610dcd57610100808354040283529160200191610df8565b820191906000526020600020905b815481529060010190602001808311610ddb57829003601f168201915b505050505090806001018054610e0d90611457565b80601f0160208091040260200160405190810160405280929190818152602001828054610e3990611457565b8015610e865780601f10610e5b57610100808354040283529160200191610e86565b820191906000526020600020905b815481529060010190602001808311610e6957829003601f168201915b505050505090806002015490806003015490806004015490806005015490806006015490806007018054610eb990611457565b80601f0160208091040260200160405190810160405280929190818152602001828054610ee590611457565b8015610f325780601f10610f0757610100808354040283529160200191610f32565b820191906000526020600020905b815481529060010190602001808311610f1557829003601f168201915b505050506008830154600984018054939460ff8084169561010085049091169450620100009093046001600160a01b031692909190610f7090611457565b80601f0160208091040260200160405190810160405280929190818152602001828054610f9c90611457565b8015610fe95780601f10610fbe57610100808354040283529160200191610fe9565b820191906000526020600020905b815481529060010190602001808311610fcc57829003601f168201915b505050505090508c565b6000610fff82846115cd565b9392505050565b634e487b7160e01b600052604160045260246000fd5b600082601f83011261102d57600080fd5b813567ffffffffffffffff8082111561104857611048611006565b604051601f8301601f19908116603f0116810190828211818310171561107057611070611006565b8160405283815286602085880101111561108957600080fd5b836020870160208301376000602085830101528094505050505092915050565b600080600080600060a086880312156110c157600080fd5b853567ffffffffffffffff808211156110d957600080fd5b6110e589838a0161101c565b965060208801359150808211156110fb57600080fd5b61110789838a0161101c565b955060408801359450606088013591508082111561112457600080fd5b61113089838a0161101c565b9350608088013591508082111561114657600080fd5b506111538882890161101c565b9150509295509295909350565b60006020828403121561117257600080fd5b5035919050565b6001600160a01b038116811461118e57600080fd5b50565b6000602082840312156111a357600080fd5b8135610fff81611179565b6000815180845260005b818110156111d4576020818501810151868301820152016111b8565b506000602082860101526020601f19601f83011685010191505092915050565b60006020808301818452808551808352604092508286019150828160051b87010184880160005b8381101561131057603f1989840301855281516101808151818652611242828701826111ae565b915050888201518582038a87015261125a82826111ae565b838a0151878b0152606080850151908801526080808501519088015260a0808501519088015260c0808501519088015260e080850151888303828a015291935091506112a683826111ae565b92505050610100808301516112be8288018215159052565b505061012082810151151590860152610140808301516001600160a01b03169086015261016091820151858203928601929092526112fc81836111ae565b96890196945050509086019060010161121b565b509098975050505050505050565b6000806040838503121561133157600080fd5b823561133c81611179565b946020939093013593505050565b60008060006060848603121561135f57600080fd5b833561136a81611179565b9250602084013561137a81611179565b929592945050506040919091013590565b610180815260006113a061018083018f6111ae565b82810360208401526113b2818f6111ae565b90508c60408401528b60608401528a60808401528960a08401528860c084015282810360e08401526113e481896111ae565b8715156101008501528615156101208501526001600160a01b038616610140850152905082810361016084015261141b81856111ae565b9f9e505050505050505050505050505050565b634e487b7160e01b600052601160045260246000fd5b80820180821115610bd257610bd261142e565b600181811c9082168061146b57607f821691505b60208210810361148b57634e487b7160e01b600052602260045260246000fd5b50919050565b601f8211156114db57600081815260208120601f850160051c810160208610156114b85750805b601f850160051c820191505b818110156114d7578281556001016114c4565b5050505b505050565b815167ffffffffffffffff8111156114fa576114fa611006565b61150e816115088454611457565b84611491565b602080601f831160018114611543576000841561152b5750858301515b600019600386901b1c1916600185901b1785556114d7565b600085815260208120601f198616915b8281101561157257888601518255948401946001909101908401611553565b50858210156115905787850151600019600388901b60f8161c191681555b5050505050600190811b01905550565b634e487b7160e01b600052603260045260246000fd5b6000816115c5576115c561142e565b506000190190565b8082028115828204841417610bd257610bd261142e56fea264697066735822122076379778fcff0fa04710c12defd735436fcae31150fea3c8f4802917f9c8923164736f6c63430008130033",
  "immutableReferences": {},
  "source": "// SPDX-License-Identifier: GPL-3.0\r\n\r\n\r\n// Enable optimizer\r\npragma solidity ^0.8.0;\r\n\r\nimport \"@openzeppelin/contracts/utils/math/SafeMath.sol\";\r\n\r\ncontract Insurance{\r\n    using SafeMath for uint256;\r\n\r\n    struct Policy{\r\n        string name;\r\n        string typeOfCrop;\r\n        uint timePeriod;\r\n        uint nextPremiumTime;\r\n        uint coverageAmount;\r\n        uint premiumAmount; // 5% \r\n        uint noOfPremiumLeft;\r\n        \r\n        string phoneNo;\r\n        bool isClaimed;\r\n        bool isVerified;\r\n        \r\n        address verificationDoneBy;\r\n        string position;\r\n    }\r\n\r\n    mapping (address => Policy[]) public policies; \r\n\r\n    // \"Pravin\",20,\"Rice\",12,123445\r\n    function addPolicy(string memory _name, string memory _typeOfCrop, uint _timePeriod\r\n    , string memory _phoneNo, string memory position) public  {\r\n        Policy memory p = Policy(\r\n            _name,\r\n            _typeOfCrop,\r\n            _timePeriod,\r\n            block.timestamp + 10, // 2592000 per month\r\n            getCoverageAmount(),\r\n            getPremiumAmount(),\r\n            12,\r\n\r\n            _phoneNo,\r\n            false,\r\n            false,\r\n            address(0),\r\n            position\r\n        );\r\n\r\n        policies[msg.sender].push(p);\r\n    }\r\n\r\n    function getCoverageAmount() public pure returns(uint){\r\n        // Code for calculating the coverage amount\r\n        return 5;\r\n    }\r\n\r\n    function getPremiumAmount() public pure returns(uint){\r\n        // code for calculating premium amount based on coverage amount\r\n        return 1;\r\n    }\r\n\r\n    function payPremium(uint policyId) public payable {\r\n        require(policies[msg.sender].length > policyId, \"Invalid policy ID\");\r\n\r\n\r\n        uint premiumAmount = policies[msg.sender][policyId].premiumAmount;\r\n        uint noOfPremiumLeft = policies[msg.sender][policyId].noOfPremiumLeft;\r\n        bool isClaimed = policies[msg.sender][policyId].isClaimed;\r\n        uint nextPremiumTime = policies[msg.sender][policyId].nextPremiumTime;\r\n        bool isVerified = policies[msg.sender][policyId].isVerified;\r\n\r\n        require(isVerified, \"Your policy still not verified\");\r\n        require(nextPremiumTime <= block.timestamp, \"Your next premium is not activated yet\");\r\n        require(msg.value == premiumAmount.mul(1 ether), \"Insufficient premium amount\");\r\n        require(noOfPremiumLeft > 0, \"You paid all your premiums\");\r\n        require(!isClaimed, \"You already claimed your premiums\");\r\n\r\n        policies[msg.sender][policyId].noOfPremiumLeft--;\r\n        policies[msg.sender][policyId].nextPremiumTime = block.timestamp + 10;// 2592000\r\n\r\n        // _reciver.transfer(premiumAmount.mul(1 ether));\r\n    }\r\n\r\n    function verifyPolicy(address verifier, address policyHolder, uint policyId) public returns(bool){\r\n        // match the verifier\r\n        require(verifier == msg.sender, \"Wrong verifier\");\r\n        require(policies[policyHolder].length > policyId, \"Invalid policy ID/Holder\");\r\n\r\n        policies[policyHolder][policyId].verificationDoneBy = verifier;\r\n        policies[policyHolder][policyId].isVerified = true;\r\n\r\n        return true;\r\n    }\r\n\r\n    function getPolicyDetails(address policyHolder) public view returns (Policy[] memory){\r\n        return policies[policyHolder];\r\n    }\r\n\r\n    function claimPolicy(address payable policyHolder, uint policyId) public returns(bool){\r\n        require(policyHolder == msg.sender, \"Wrong verifier\");\r\n        require(policies[policyHolder].length > policyId, \"Invalid policy ID/Holder\");\r\n        \r\n        policies[policyHolder][policyId].isClaimed = true;\r\n        policyHolder.transfer(policies[policyHolder][policyId].coverageAmount.mul(1 ether));\r\n\r\n        return true;\r\n    }\r\n}",
  "sourcePath": "C:\\Users\\USER\\Documents\\Programming World\\Block Assure\\contracts\\Insurance.sol",
  "compiler": {
    "name": "solc",
    "version": "0.8.19+commit.7dd6d404.Emscripten.clang"
  },
  "schemaVersion": "3.4.13",
  "updatedAt": "2023-05-05T07:08:35.859Z",
  "networkType": "ethereum",
  "devdoc": {
    "kind": "dev",
    "methods": {},
    "version": 1
  },
  "userdoc": {
    "kind": "user",
    "methods": {},
    "version": 1
  }
}